{
  "contracts/DVS.sol": {
    "Candidate": {
      "abi": [
        {
          "anonymous": false,
          "inputs": [
            {
              "indexed": true,
              "internalType": "address",
              "name": "host_",
              "type": "address"
            }
          ],
          "name": "constructor_",
          "type": "event"
        },
        {
          "anonymous": false,
          "inputs": [
            {
              "indexed": true,
              "internalType": "uint256",
              "name": "resetCount",
              "type": "uint256"
            }
          ],
          "name": "resetElection_",
          "type": "event"
        },
        {
          "anonymous": false,
          "inputs": [
            {
              "indexed": true,
              "internalType": "uint256",
              "name": "endTime_",
              "type": "uint256"
            }
          ],
          "name": "setElection_time_",
          "type": "event"
        },
        {
          "inputs": [
            {
              "internalType": "string",
              "name": "name_",
              "type": "string"
            },
            {
              "internalType": "uint256",
              "name": "id_",
              "type": "uint256"
            }
          ],
          "name": "addCandidate",
          "outputs": [],
          "stateMutability": "nonpayable",
          "type": "function"
        },
        {
          "inputs": [],
          "name": "getCandidates",
          "outputs": [
            {
              "components": [
                {
                  "internalType": "string",
                  "name": "name",
                  "type": "string"
                },
                {
                  "internalType": "uint256",
                  "name": "id",
                  "type": "uint256"
                },
                {
                  "internalType": "uint256",
                  "name": "voteCount",
                  "type": "uint256"
                }
              ],
              "internalType": "struct Election.Candidate_[]",
              "name": "",
              "type": "tuple[]"
            }
          ],
          "stateMutability": "view",
          "type": "function"
        },
        {
          "inputs": [
            {
              "internalType": "uint256",
              "name": "id",
              "type": "uint256"
            }
          ],
          "name": "getCandidates_votecount",
          "outputs": [
            {
              "internalType": "uint256",
              "name": "",
              "type": "uint256"
            }
          ],
          "stateMutability": "view",
          "type": "function"
        },
        {
          "inputs": [],
          "name": "getElection_time",
          "outputs": [
            {
              "internalType": "uint256",
              "name": "",
              "type": "uint256"
            }
          ],
          "stateMutability": "view",
          "type": "function"
        },
        {
          "inputs": [],
          "name": "getResetElection_count",
          "outputs": [
            {
              "internalType": "uint256",
              "name": "",
              "type": "uint256"
            }
          ],
          "stateMutability": "view",
          "type": "function"
        },
        {
          "inputs": [
            {
              "internalType": "uint256",
              "name": "id_",
              "type": "uint256"
            }
          ],
          "name": "removeCandidate",
          "outputs": [],
          "stateMutability": "nonpayable",
          "type": "function"
        },
        {
          "inputs": [],
          "name": "resetElection",
          "outputs": [],
          "stateMutability": "nonpayable",
          "type": "function"
        },
        {
          "inputs": [
            {
              "internalType": "uint256",
              "name": "weeks_",
              "type": "uint256"
            },
            {
              "internalType": "uint256",
              "name": "days_",
              "type": "uint256"
            },
            {
              "internalType": "uint256",
              "name": "hours_",
              "type": "uint256"
            },
            {
              "internalType": "uint256",
              "name": "minutes_",
              "type": "uint256"
            },
            {
              "internalType": "uint256",
              "name": "seconds_",
              "type": "uint256"
            }
          ],
          "name": "startElection",
          "outputs": [],
          "stateMutability": "nonpayable",
          "type": "function"
        }
      ],
      "evm": {
        "bytecode": {
          "linkReferences": {},
          "object": "6080604052600060015534801561001557600080fd5b50600080546001600160a01b03191633178082556040516001600160a01b0391909116917f0b41a216fea24e5c7f23614889e0b25abb2e08d2eb1b497dec255157ff953d0a91a2610fbf8061006b6000396000f3fe608060405234801561001057600080fd5b50600436106100885760003560e01c80637af874101161005b5780637af87410146100de578063e23cec7b146100f1578063e8f3052314610104578063f84028d51461010c57610088565b806306a49fce1461008d57806309e9d7e2146100ab5780632ed986a7146100c05780634f84d8d8146100d6575b600080fd5b61009561011f565b6040516100a29190610dc1565b60405180910390f35b6100be6100b9366004610d6f565b610224565b005b6100c861048e565b6040519081526020016100a2565b6001546100c8565b6100be6100ec366004610d87565b6104f4565b6100be6100ff366004610cbd565b610639565b6100be6107f8565b6100c861011a366004610d6f565b610a1a565b60606002805480602002602001604051908101604052809291908181526020016000905b8282101561021b578382906000526020600020906003020160405180606001604052908160008201805461017690610f07565b80601f01602080910402602001604051908101604052809291908181526020018280546101a290610f07565b80156101ef5780601f106101c4576101008083540402835291602001916101ef565b820191906000526020600020905b8154815290600101906020018083116101d257829003601f168201915b505050505081526020016001820154815260200160028201548152505081526020019060010190610143565b50505050905090565b6000546001600160a01b031633146102575760405162461bcd60e51b815260040161024e90610e77565b60405180910390fd5b60008181526003602052604090205460ff166102b55760405162461bcd60e51b815260206004820152601760248201527f43616e646964617465204944206e6f7420666f756e6421000000000000000000604482015260640161024e565b600954421161032c5760405162461bcd60e51b815260206004820152603b60248201527f52656d6f76696e672063616e6469646174652069732070726f6869626974656460448201527f207768656e20656c656374696f6e2068617320737461727465642e0000000000606482015260840161024e565b60005b60025481101561048a57816002828154811061035b57634e487b7160e01b600052603260045260246000fd5b9060005260206000209060030201600101541415610478576000828152600360205260409020805460ff191690556002805461039990600190610ef0565b815481106103b757634e487b7160e01b600052603260045260246000fd5b9060005260206000209060030201600282815481106103e657634e487b7160e01b600052603260045260246000fd5b9060005260206000209060030201600082018160000190805461040890610f07565b610413929190610b04565b50600182810154908201556002918201549082015580548061044557634e487b7160e01b600052603160045260246000fd5b600082815260208120600019909201916003830201906104658282610b8f565b5060006001820181905560029091015590555b8061048281610f42565b91505061032f565b5050565b600060095442106104e15760405162461bcd60e51b815260206004820152601d60248201527f456c656374696f6e20686173206e6f7420737461727465642079657421000000604482015260640161024e565b426009546104ef9190610ef0565b905090565b6000546001600160a01b0316331461051e5760405162461bcd60e51b815260040161024e90610e77565b6002805410156105a05760405162461bcd60e51b815260206004820152604160248201527f4174206c656173742032206f72206d6f72652043616e6469646174657320617260448201527f6520726571756972656420746f2073746172742074686520456c656374696f6e6064820152602160f81b608482015260a40161024e565b806105ac83603c610ed1565b6105b885610e10610ed1565b6105c58762015180610ed1565b6105d28962093a80610ed1565b6105dc9042610eb9565b6105e69190610eb9565b6105f09190610eb9565b6105fa9190610eb9565b6106049190610eb9565b60098190556040517fd0620cedbb1e03e8a5c59f460040ef78fd59fb3abf2fce0a3f43a2adf47be5e990600090a25050505050565b6000546001600160a01b031633146106635760405162461bcd60e51b815260040161024e90610e77565b60008181526003602052604090205460ff16156106b75760405162461bcd60e51b815260206004820152601260248201527143616e64696461746520457869737465642160701b604482015260640161024e565b600954421161072e5760405162461bcd60e51b815260206004820152603960248201527f416464696e672063616e6469646174652069732070726f68696269746564207760448201527f68656e20656c656374696f6e2068617320737461727465642e00000000000000606482015260840161024e565b60408051606081018252838152602080820184905260009282018390526002805460018101825593528151805192936003027f405787fa12a823e0f2b7631cc41b3ba8828b3321ca811111fa75cd3aa3bb5ace01926107909284920190610bce565b5060208281015160018084019190915560409384015160029093019290925560008481526003909152918220805460ff1916821790556004805491820181559091527f8a35acfbc15ff81a39ae7d344fd709f28e8600b4aa8c65c6b64bfe7fe36bd19b015550565b6000546001600160a01b031633146108225760405162461bcd60e51b815260040161024e90610e77565b60095442106108735760405162461bcd60e51b815260206004820152601d60248201527f456c656374696f6e20686173206e6f7420737461727465642079657421000000604482015260640161024e565b60005b6002548110156108ea57600060036000600484815481106108a757634e487b7160e01b600052603260045260246000fd5b9060005260206000200154815260200190815260200160002060006101000a81548160ff02191690831515021790555080806108e290610f42565b915050610876565b5060005b6007548110156109b9576000600560006008848154811061091f57634e487b7160e01b600052603260045260246000fd5b9060005260206000200154815260200190815260200160002060006101000a81548160ff0219169083151502179055506000600660006008848154811061097657634e487b7160e01b600052603260045260246000fd5b9060005260206000200154815260200190815260200160002060006101000a81548160ff02191690831515021790555080806109b190610f42565b9150506108ee565b506109c660026000610c42565b6109d260076000610c63565b6000600981905560018054916109e783610f42565b90915550506001546040517f255af500d3b382c6aefa7fcb5720ee98710a491c3dd03cd10dc45ec66aa92c4d90600090a2565b600080805b600254811015610a7e578360028281548110610a4b57634e487b7160e01b600052603260045260246000fd5b9060005260206000209060030201600101541415610a6c5760019150610a7e565b80610a7681610f42565b915050610a1f565b600182151514610ac85760405162461bcd60e51b8152602060048201526015602482015274496e76616c69642043616e6469646174652049442160581b604482015260640161024e565b60028181548110610ae957634e487b7160e01b600052603260045260246000fd5b90600052602060002090600302016002015492505050919050565b828054610b1090610f07565b90600052602060002090601f016020900481019282610b325760008555610b7f565b82601f10610b435780548555610b7f565b82800160010185558215610b7f57600052602060002091601f016020900482015b82811115610b7f578254825591600101919060010190610b64565b50610b8b929150610c7d565b5090565b508054610b9b90610f07565b6000825580601f10610bad5750610bcb565b601f016020900490600052602060002090810190610bcb9190610c7d565b50565b828054610bda90610f07565b90600052602060002090601f016020900481019282610bfc5760008555610b7f565b82601f10610c1557805160ff1916838001178555610b7f565b82800160010185558215610b7f579182015b82811115610b7f578251825591602001919060010190610c27565b5080546000825560030290600052602060002090810190610bcb9190610c92565b5080546000825590600052602060002090810190610bcb91905b5b80821115610b8b5760008155600101610c7e565b80821115610b8b576000610ca68282610b8f565b506000600182018190556002820155600301610c92565b60008060408385031215610ccf578182fd5b823567ffffffffffffffff80821115610ce6578384fd5b818501915085601f830112610cf9578384fd5b813581811115610d0b57610d0b610f73565b604051601f8201601f19908116603f01168101908382118183101715610d3357610d33610f73565b81604052828152886020848701011115610d4b578687fd5b82602086016020830137918201602090810196909652509694909301359450505050565b600060208284031215610d80578081fd5b5035919050565b600080600080600060a08688031215610d9e578081fd5b505083359560208501359550604085013594606081013594506080013592509050565b60208082528251828201819052600091906040908185019080840286018301878501865b83811015610e6957603f19898403018552815160608151818652805180838801528b92505b80831015610e28578183018b015187840160800152918a0191610e0a565b80831115610e39578b608082890101525b838b0151878c01529289015189870152505094870194601f01601f19169092016080019190860190600101610de5565b509098975050505050505050565b60208082526022908201527f4f6e6c7920686f73742063616e2061636365737320746f207468697320617265604082015261612160f01b606082015260800190565b60008219821115610ecc57610ecc610f5d565b500190565b6000816000190483118215151615610eeb57610eeb610f5d565b500290565b600082821015610f0257610f02610f5d565b500390565b600281046001821680610f1b57607f821691505b60208210811415610f3c57634e487b7160e01b600052602260045260246000fd5b50919050565b6000600019821415610f5657610f56610f5d565b5060010190565b634e487b7160e01b600052601160045260246000fd5b634e487b7160e01b600052604160045260246000fdfea2646970667358221220d85f3ff432ed641118a4232f5fd8ab51087f69862c207f64878cc68448fa39fb64736f6c63430008020033",
          "opcodes": "PUSH1 0x80 PUSH1 0x40 MSTORE PUSH1 0x0 PUSH1 0x1 SSTORE CALLVALUE DUP1 ISZERO PUSH2 0x15 JUMPI PUSH1 0x0 DUP1 REVERT JUMPDEST POP PUSH1 0x0 DUP1 SLOAD PUSH1 0x1 PUSH1 0x1 PUSH1 0xA0 SHL SUB NOT AND CALLER OR DUP1 DUP3 SSTORE PUSH1 0x40 MLOAD PUSH1 0x1 PUSH1 0x1 PUSH1 0xA0 SHL SUB SWAP2 SWAP1 SWAP2 AND SWAP2 PUSH32 0xB41A216FEA24E5C7F23614889E0B25ABB2E08D2EB1B497DEC255157FF953D0A SWAP2 LOG2 PUSH2 0xFBF DUP1 PUSH2 0x6B PUSH1 0x0 CODECOPY PUSH1 0x0 RETURN INVALID PUSH1 0x80 PUSH1 0x40 MSTORE CALLVALUE DUP1 ISZERO PUSH2 0x10 JUMPI PUSH1 0x0 DUP1 REVERT JUMPDEST POP PUSH1 0x4 CALLDATASIZE LT PUSH2 0x88 JUMPI PUSH1 0x0 CALLDATALOAD PUSH1 0xE0 SHR DUP1 PUSH4 0x7AF87410 GT PUSH2 0x5B JUMPI DUP1 PUSH4 0x7AF87410 EQ PUSH2 0xDE JUMPI DUP1 PUSH4 0xE23CEC7B EQ PUSH2 0xF1 JUMPI DUP1 PUSH4 0xE8F30523 EQ PUSH2 0x104 JUMPI DUP1 PUSH4 0xF84028D5 EQ PUSH2 0x10C JUMPI PUSH2 0x88 JUMP JUMPDEST DUP1 PUSH4 0x6A49FCE EQ PUSH2 0x8D JUMPI DUP1 PUSH4 0x9E9D7E2 EQ PUSH2 0xAB JUMPI DUP1 PUSH4 0x2ED986A7 EQ PUSH2 0xC0 JUMPI DUP1 PUSH4 0x4F84D8D8 EQ PUSH2 0xD6 JUMPI JUMPDEST PUSH1 0x0 DUP1 REVERT JUMPDEST PUSH2 0x95 PUSH2 0x11F JUMP JUMPDEST PUSH1 0x40 MLOAD PUSH2 0xA2 SWAP2 SWAP1 PUSH2 0xDC1 JUMP JUMPDEST PUSH1 0x40 MLOAD DUP1 SWAP2 SUB SWAP1 RETURN JUMPDEST PUSH2 0xBE PUSH2 0xB9 CALLDATASIZE PUSH1 0x4 PUSH2 0xD6F JUMP JUMPDEST PUSH2 0x224 JUMP JUMPDEST STOP JUMPDEST PUSH2 0xC8 PUSH2 0x48E JUMP JUMPDEST PUSH1 0x40 MLOAD SWAP1 DUP2 MSTORE PUSH1 0x20 ADD PUSH2 0xA2 JUMP JUMPDEST PUSH1 0x1 SLOAD PUSH2 0xC8 JUMP JUMPDEST PUSH2 0xBE PUSH2 0xEC CALLDATASIZE PUSH1 0x4 PUSH2 0xD87 JUMP JUMPDEST PUSH2 0x4F4 JUMP JUMPDEST PUSH2 0xBE PUSH2 0xFF CALLDATASIZE PUSH1 0x4 PUSH2 0xCBD JUMP JUMPDEST PUSH2 0x639 JUMP JUMPDEST PUSH2 0xBE PUSH2 0x7F8 JUMP JUMPDEST PUSH2 0xC8 PUSH2 0x11A CALLDATASIZE PUSH1 0x4 PUSH2 0xD6F JUMP JUMPDEST PUSH2 0xA1A JUMP JUMPDEST PUSH1 0x60 PUSH1 0x2 DUP1 SLOAD DUP1 PUSH1 0x20 MUL PUSH1 0x20 ADD PUSH1 0x40 MLOAD SWAP1 DUP2 ADD PUSH1 0x40 MSTORE DUP1 SWAP3 SWAP2 SWAP1 DUP2 DUP2 MSTORE PUSH1 0x20 ADD PUSH1 0x0 SWAP1 JUMPDEST DUP3 DUP3 LT ISZERO PUSH2 0x21B JUMPI DUP4 DUP3 SWAP1 PUSH1 0x0 MSTORE PUSH1 0x20 PUSH1 0x0 KECCAK256 SWAP1 PUSH1 0x3 MUL ADD PUSH1 0x40 MLOAD DUP1 PUSH1 0x60 ADD PUSH1 0x40 MSTORE SWAP1 DUP2 PUSH1 0x0 DUP3 ADD DUP1 SLOAD PUSH2 0x176 SWAP1 PUSH2 0xF07 JUMP JUMPDEST DUP1 PUSH1 0x1F ADD PUSH1 0x20 DUP1 SWAP2 DIV MUL PUSH1 0x20 ADD PUSH1 0x40 MLOAD SWAP1 DUP2 ADD PUSH1 0x40 MSTORE DUP1 SWAP3 SWAP2 SWAP1 DUP2 DUP2 MSTORE PUSH1 0x20 ADD DUP3 DUP1 SLOAD PUSH2 0x1A2 SWAP1 PUSH2 0xF07 JUMP JUMPDEST DUP1 ISZERO PUSH2 0x1EF JUMPI DUP1 PUSH1 0x1F LT PUSH2 0x1C4 JUMPI PUSH2 0x100 DUP1 DUP4 SLOAD DIV MUL DUP4 MSTORE SWAP2 PUSH1 0x20 ADD SWAP2 PUSH2 0x1EF JUMP JUMPDEST DUP3 ADD SWAP2 SWAP1 PUSH1 0x0 MSTORE PUSH1 0x20 PUSH1 0x0 KECCAK256 SWAP1 JUMPDEST DUP2 SLOAD DUP2 MSTORE SWAP1 PUSH1 0x1 ADD SWAP1 PUSH1 0x20 ADD DUP1 DUP4 GT PUSH2 0x1D2 JUMPI DUP3 SWAP1 SUB PUSH1 0x1F AND DUP3 ADD SWAP2 JUMPDEST POP POP POP POP POP DUP2 MSTORE PUSH1 0x20 ADD PUSH1 0x1 DUP3 ADD SLOAD DUP2 MSTORE PUSH1 0x20 ADD PUSH1 0x2 DUP3 ADD SLOAD DUP2 MSTORE POP POP DUP2 MSTORE PUSH1 0x20 ADD SWAP1 PUSH1 0x1 ADD SWAP1 PUSH2 0x143 JUMP JUMPDEST POP POP POP POP SWAP1 POP SWAP1 JUMP JUMPDEST PUSH1 0x0 SLOAD PUSH1 0x1 PUSH1 0x1 PUSH1 0xA0 SHL SUB AND CALLER EQ PUSH2 0x257 JUMPI PUSH1 0x40 MLOAD PUSH3 0x461BCD PUSH1 0xE5 SHL DUP2 MSTORE PUSH1 0x4 ADD PUSH2 0x24E SWAP1 PUSH2 0xE77 JUMP JUMPDEST PUSH1 0x40 MLOAD DUP1 SWAP2 SUB SWAP1 REVERT JUMPDEST PUSH1 0x0 DUP2 DUP2 MSTORE PUSH1 0x3 PUSH1 0x20 MSTORE PUSH1 0x40 SWAP1 KECCAK256 SLOAD PUSH1 0xFF AND PUSH2 0x2B5 JUMPI PUSH1 0x40 MLOAD PUSH3 0x461BCD PUSH1 0xE5 SHL DUP2 MSTORE PUSH1 0x20 PUSH1 0x4 DUP3 ADD MSTORE PUSH1 0x17 PUSH1 0x24 DUP3 ADD MSTORE PUSH32 0x43616E646964617465204944206E6F7420666F756E6421000000000000000000 PUSH1 0x44 DUP3 ADD MSTORE PUSH1 0x64 ADD PUSH2 0x24E JUMP JUMPDEST PUSH1 0x9 SLOAD TIMESTAMP GT PUSH2 0x32C JUMPI PUSH1 0x40 MLOAD PUSH3 0x461BCD PUSH1 0xE5 SHL DUP2 MSTORE PUSH1 0x20 PUSH1 0x4 DUP3 ADD MSTORE PUSH1 0x3B PUSH1 0x24 DUP3 ADD MSTORE PUSH32 0x52656D6F76696E672063616E6469646174652069732070726F68696269746564 PUSH1 0x44 DUP3 ADD MSTORE PUSH32 0x207768656E20656C656374696F6E2068617320737461727465642E0000000000 PUSH1 0x64 DUP3 ADD MSTORE PUSH1 0x84 ADD PUSH2 0x24E JUMP JUMPDEST PUSH1 0x0 JUMPDEST PUSH1 0x2 SLOAD DUP2 LT ISZERO PUSH2 0x48A JUMPI DUP2 PUSH1 0x2 DUP3 DUP2 SLOAD DUP2 LT PUSH2 0x35B JUMPI PUSH4 0x4E487B71 PUSH1 0xE0 SHL PUSH1 0x0 MSTORE PUSH1 0x32 PUSH1 0x4 MSTORE PUSH1 0x24 PUSH1 0x0 REVERT JUMPDEST SWAP1 PUSH1 0x0 MSTORE PUSH1 0x20 PUSH1 0x0 KECCAK256 SWAP1 PUSH1 0x3 MUL ADD PUSH1 0x1 ADD SLOAD EQ ISZERO PUSH2 0x478 JUMPI PUSH1 0x0 DUP3 DUP2 MSTORE PUSH1 0x3 PUSH1 0x20 MSTORE PUSH1 0x40 SWAP1 KECCAK256 DUP1 SLOAD PUSH1 0xFF NOT AND SWAP1 SSTORE PUSH1 0x2 DUP1 SLOAD PUSH2 0x399 SWAP1 PUSH1 0x1 SWAP1 PUSH2 0xEF0 JUMP JUMPDEST DUP2 SLOAD DUP2 LT PUSH2 0x3B7 JUMPI PUSH4 0x4E487B71 PUSH1 0xE0 SHL PUSH1 0x0 MSTORE PUSH1 0x32 PUSH1 0x4 MSTORE PUSH1 0x24 PUSH1 0x0 REVERT JUMPDEST SWAP1 PUSH1 0x0 MSTORE PUSH1 0x20 PUSH1 0x0 KECCAK256 SWAP1 PUSH1 0x3 MUL ADD PUSH1 0x2 DUP3 DUP2 SLOAD DUP2 LT PUSH2 0x3E6 JUMPI PUSH4 0x4E487B71 PUSH1 0xE0 SHL PUSH1 0x0 MSTORE PUSH1 0x32 PUSH1 0x4 MSTORE PUSH1 0x24 PUSH1 0x0 REVERT JUMPDEST SWAP1 PUSH1 0x0 MSTORE PUSH1 0x20 PUSH1 0x0 KECCAK256 SWAP1 PUSH1 0x3 MUL ADD PUSH1 0x0 DUP3 ADD DUP2 PUSH1 0x0 ADD SWAP1 DUP1 SLOAD PUSH2 0x408 SWAP1 PUSH2 0xF07 JUMP JUMPDEST PUSH2 0x413 SWAP3 SWAP2 SWAP1 PUSH2 0xB04 JUMP JUMPDEST POP PUSH1 0x1 DUP3 DUP2 ADD SLOAD SWAP1 DUP3 ADD SSTORE PUSH1 0x2 SWAP2 DUP3 ADD SLOAD SWAP1 DUP3 ADD SSTORE DUP1 SLOAD DUP1 PUSH2 0x445 JUMPI PUSH4 0x4E487B71 PUSH1 0xE0 SHL PUSH1 0x0 MSTORE PUSH1 0x31 PUSH1 0x4 MSTORE PUSH1 0x24 PUSH1 0x0 REVERT JUMPDEST PUSH1 0x0 DUP3 DUP2 MSTORE PUSH1 0x20 DUP2 KECCAK256 PUSH1 0x0 NOT SWAP1 SWAP3 ADD SWAP2 PUSH1 0x3 DUP4 MUL ADD SWAP1 PUSH2 0x465 DUP3 DUP3 PUSH2 0xB8F JUMP JUMPDEST POP PUSH1 0x0 PUSH1 0x1 DUP3 ADD DUP2 SWAP1 SSTORE PUSH1 0x2 SWAP1 SWAP2 ADD SSTORE SWAP1 SSTORE JUMPDEST DUP1 PUSH2 0x482 DUP2 PUSH2 0xF42 JUMP JUMPDEST SWAP2 POP POP PUSH2 0x32F JUMP JUMPDEST POP POP JUMP JUMPDEST PUSH1 0x0 PUSH1 0x9 SLOAD TIMESTAMP LT PUSH2 0x4E1 JUMPI PUSH1 0x40 MLOAD PUSH3 0x461BCD PUSH1 0xE5 SHL DUP2 MSTORE PUSH1 0x20 PUSH1 0x4 DUP3 ADD MSTORE PUSH1 0x1D PUSH1 0x24 DUP3 ADD MSTORE PUSH32 0x456C656374696F6E20686173206E6F7420737461727465642079657421000000 PUSH1 0x44 DUP3 ADD MSTORE PUSH1 0x64 ADD PUSH2 0x24E JUMP JUMPDEST TIMESTAMP PUSH1 0x9 SLOAD PUSH2 0x4EF SWAP2 SWAP1 PUSH2 0xEF0 JUMP JUMPDEST SWAP1 POP SWAP1 JUMP JUMPDEST PUSH1 0x0 SLOAD PUSH1 0x1 PUSH1 0x1 PUSH1 0xA0 SHL SUB AND CALLER EQ PUSH2 0x51E JUMPI PUSH1 0x40 MLOAD PUSH3 0x461BCD PUSH1 0xE5 SHL DUP2 MSTORE PUSH1 0x4 ADD PUSH2 0x24E SWAP1 PUSH2 0xE77 JUMP JUMPDEST PUSH1 0x2 DUP1 SLOAD LT ISZERO PUSH2 0x5A0 JUMPI PUSH1 0x40 MLOAD PUSH3 0x461BCD PUSH1 0xE5 SHL DUP2 MSTORE PUSH1 0x20 PUSH1 0x4 DUP3 ADD MSTORE PUSH1 0x41 PUSH1 0x24 DUP3 ADD MSTORE PUSH32 0x4174206C656173742032206F72206D6F72652043616E64696461746573206172 PUSH1 0x44 DUP3 ADD MSTORE PUSH32 0x6520726571756972656420746F2073746172742074686520456C656374696F6E PUSH1 0x64 DUP3 ADD MSTORE PUSH1 0x21 PUSH1 0xF8 SHL PUSH1 0x84 DUP3 ADD MSTORE PUSH1 0xA4 ADD PUSH2 0x24E JUMP JUMPDEST DUP1 PUSH2 0x5AC DUP4 PUSH1 0x3C PUSH2 0xED1 JUMP JUMPDEST PUSH2 0x5B8 DUP6 PUSH2 0xE10 PUSH2 0xED1 JUMP JUMPDEST PUSH2 0x5C5 DUP8 PUSH3 0x15180 PUSH2 0xED1 JUMP JUMPDEST PUSH2 0x5D2 DUP10 PUSH3 0x93A80 PUSH2 0xED1 JUMP JUMPDEST PUSH2 0x5DC SWAP1 TIMESTAMP PUSH2 0xEB9 JUMP JUMPDEST PUSH2 0x5E6 SWAP2 SWAP1 PUSH2 0xEB9 JUMP JUMPDEST PUSH2 0x5F0 SWAP2 SWAP1 PUSH2 0xEB9 JUMP JUMPDEST PUSH2 0x5FA SWAP2 SWAP1 PUSH2 0xEB9 JUMP JUMPDEST PUSH2 0x604 SWAP2 SWAP1 PUSH2 0xEB9 JUMP JUMPDEST PUSH1 0x9 DUP2 SWAP1 SSTORE PUSH1 0x40 MLOAD PUSH32 0xD0620CEDBB1E03E8A5C59F460040EF78FD59FB3ABF2FCE0A3F43A2ADF47BE5E9 SWAP1 PUSH1 0x0 SWAP1 LOG2 POP POP POP POP POP JUMP JUMPDEST PUSH1 0x0 SLOAD PUSH1 0x1 PUSH1 0x1 PUSH1 0xA0 SHL SUB AND CALLER EQ PUSH2 0x663 JUMPI PUSH1 0x40 MLOAD PUSH3 0x461BCD PUSH1 0xE5 SHL DUP2 MSTORE PUSH1 0x4 ADD PUSH2 0x24E SWAP1 PUSH2 0xE77 JUMP JUMPDEST PUSH1 0x0 DUP2 DUP2 MSTORE PUSH1 0x3 PUSH1 0x20 MSTORE PUSH1 0x40 SWAP1 KECCAK256 SLOAD PUSH1 0xFF AND ISZERO PUSH2 0x6B7 JUMPI PUSH1 0x40 MLOAD PUSH3 0x461BCD PUSH1 0xE5 SHL DUP2 MSTORE PUSH1 0x20 PUSH1 0x4 DUP3 ADD MSTORE PUSH1 0x12 PUSH1 0x24 DUP3 ADD MSTORE PUSH18 0x43616E646964617465204578697374656421 PUSH1 0x70 SHL PUSH1 0x44 DUP3 ADD MSTORE PUSH1 0x64 ADD PUSH2 0x24E JUMP JUMPDEST PUSH1 0x9 SLOAD TIMESTAMP GT PUSH2 0x72E JUMPI PUSH1 0x40 MLOAD PUSH3 0x461BCD PUSH1 0xE5 SHL DUP2 MSTORE PUSH1 0x20 PUSH1 0x4 DUP3 ADD MSTORE PUSH1 0x39 PUSH1 0x24 DUP3 ADD MSTORE PUSH32 0x416464696E672063616E6469646174652069732070726F686962697465642077 PUSH1 0x44 DUP3 ADD MSTORE PUSH32 0x68656E20656C656374696F6E2068617320737461727465642E00000000000000 PUSH1 0x64 DUP3 ADD MSTORE PUSH1 0x84 ADD PUSH2 0x24E JUMP JUMPDEST PUSH1 0x40 DUP1 MLOAD PUSH1 0x60 DUP2 ADD DUP3 MSTORE DUP4 DUP2 MSTORE PUSH1 0x20 DUP1 DUP3 ADD DUP5 SWAP1 MSTORE PUSH1 0x0 SWAP3 DUP3 ADD DUP4 SWAP1 MSTORE PUSH1 0x2 DUP1 SLOAD PUSH1 0x1 DUP2 ADD DUP3 SSTORE SWAP4 MSTORE DUP2 MLOAD DUP1 MLOAD SWAP3 SWAP4 PUSH1 0x3 MUL PUSH32 0x405787FA12A823E0F2B7631CC41B3BA8828B3321CA811111FA75CD3AA3BB5ACE ADD SWAP3 PUSH2 0x790 SWAP3 DUP5 SWAP3 ADD SWAP1 PUSH2 0xBCE JUMP JUMPDEST POP PUSH1 0x20 DUP3 DUP2 ADD MLOAD PUSH1 0x1 DUP1 DUP5 ADD SWAP2 SWAP1 SWAP2 SSTORE PUSH1 0x40 SWAP4 DUP5 ADD MLOAD PUSH1 0x2 SWAP1 SWAP4 ADD SWAP3 SWAP1 SWAP3 SSTORE PUSH1 0x0 DUP5 DUP2 MSTORE PUSH1 0x3 SWAP1 SWAP2 MSTORE SWAP2 DUP3 KECCAK256 DUP1 SLOAD PUSH1 0xFF NOT AND DUP3 OR SWAP1 SSTORE PUSH1 0x4 DUP1 SLOAD SWAP2 DUP3 ADD DUP2 SSTORE SWAP1 SWAP2 MSTORE PUSH32 0x8A35ACFBC15FF81A39AE7D344FD709F28E8600B4AA8C65C6B64BFE7FE36BD19B ADD SSTORE POP JUMP JUMPDEST PUSH1 0x0 SLOAD PUSH1 0x1 PUSH1 0x1 PUSH1 0xA0 SHL SUB AND CALLER EQ PUSH2 0x822 JUMPI PUSH1 0x40 MLOAD PUSH3 0x461BCD PUSH1 0xE5 SHL DUP2 MSTORE PUSH1 0x4 ADD PUSH2 0x24E SWAP1 PUSH2 0xE77 JUMP JUMPDEST PUSH1 0x9 SLOAD TIMESTAMP LT PUSH2 0x873 JUMPI PUSH1 0x40 MLOAD PUSH3 0x461BCD PUSH1 0xE5 SHL DUP2 MSTORE PUSH1 0x20 PUSH1 0x4 DUP3 ADD MSTORE PUSH1 0x1D PUSH1 0x24 DUP3 ADD MSTORE PUSH32 0x456C656374696F6E20686173206E6F7420737461727465642079657421000000 PUSH1 0x44 DUP3 ADD MSTORE PUSH1 0x64 ADD PUSH2 0x24E JUMP JUMPDEST PUSH1 0x0 JUMPDEST PUSH1 0x2 SLOAD DUP2 LT ISZERO PUSH2 0x8EA JUMPI PUSH1 0x0 PUSH1 0x3 PUSH1 0x0 PUSH1 0x4 DUP5 DUP2 SLOAD DUP2 LT PUSH2 0x8A7 JUMPI PUSH4 0x4E487B71 PUSH1 0xE0 SHL PUSH1 0x0 MSTORE PUSH1 0x32 PUSH1 0x4 MSTORE PUSH1 0x24 PUSH1 0x0 REVERT JUMPDEST SWAP1 PUSH1 0x0 MSTORE PUSH1 0x20 PUSH1 0x0 KECCAK256 ADD SLOAD DUP2 MSTORE PUSH1 0x20 ADD SWAP1 DUP2 MSTORE PUSH1 0x20 ADD PUSH1 0x0 KECCAK256 PUSH1 0x0 PUSH2 0x100 EXP DUP2 SLOAD DUP2 PUSH1 0xFF MUL NOT AND SWAP1 DUP4 ISZERO ISZERO MUL OR SWAP1 SSTORE POP DUP1 DUP1 PUSH2 0x8E2 SWAP1 PUSH2 0xF42 JUMP JUMPDEST SWAP2 POP POP PUSH2 0x876 JUMP JUMPDEST POP PUSH1 0x0 JUMPDEST PUSH1 0x7 SLOAD DUP2 LT ISZERO PUSH2 0x9B9 JUMPI PUSH1 0x0 PUSH1 0x5 PUSH1 0x0 PUSH1 0x8 DUP5 DUP2 SLOAD DUP2 LT PUSH2 0x91F JUMPI PUSH4 0x4E487B71 PUSH1 0xE0 SHL PUSH1 0x0 MSTORE PUSH1 0x32 PUSH1 0x4 MSTORE PUSH1 0x24 PUSH1 0x0 REVERT JUMPDEST SWAP1 PUSH1 0x0 MSTORE PUSH1 0x20 PUSH1 0x0 KECCAK256 ADD SLOAD DUP2 MSTORE PUSH1 0x20 ADD SWAP1 DUP2 MSTORE PUSH1 0x20 ADD PUSH1 0x0 KECCAK256 PUSH1 0x0 PUSH2 0x100 EXP DUP2 SLOAD DUP2 PUSH1 0xFF MUL NOT AND SWAP1 DUP4 ISZERO ISZERO MUL OR SWAP1 SSTORE POP PUSH1 0x0 PUSH1 0x6 PUSH1 0x0 PUSH1 0x8 DUP5 DUP2 SLOAD DUP2 LT PUSH2 0x976 JUMPI PUSH4 0x4E487B71 PUSH1 0xE0 SHL PUSH1 0x0 MSTORE PUSH1 0x32 PUSH1 0x4 MSTORE PUSH1 0x24 PUSH1 0x0 REVERT JUMPDEST SWAP1 PUSH1 0x0 MSTORE PUSH1 0x20 PUSH1 0x0 KECCAK256 ADD SLOAD DUP2 MSTORE PUSH1 0x20 ADD SWAP1 DUP2 MSTORE PUSH1 0x20 ADD PUSH1 0x0 KECCAK256 PUSH1 0x0 PUSH2 0x100 EXP DUP2 SLOAD DUP2 PUSH1 0xFF MUL NOT AND SWAP1 DUP4 ISZERO ISZERO MUL OR SWAP1 SSTORE POP DUP1 DUP1 PUSH2 0x9B1 SWAP1 PUSH2 0xF42 JUMP JUMPDEST SWAP2 POP POP PUSH2 0x8EE JUMP JUMPDEST POP PUSH2 0x9C6 PUSH1 0x2 PUSH1 0x0 PUSH2 0xC42 JUMP JUMPDEST PUSH2 0x9D2 PUSH1 0x7 PUSH1 0x0 PUSH2 0xC63 JUMP JUMPDEST PUSH1 0x0 PUSH1 0x9 DUP2 SWAP1 SSTORE PUSH1 0x1 DUP1 SLOAD SWAP2 PUSH2 0x9E7 DUP4 PUSH2 0xF42 JUMP JUMPDEST SWAP1 SWAP2 SSTORE POP POP PUSH1 0x1 SLOAD PUSH1 0x40 MLOAD PUSH32 0x255AF500D3B382C6AEFA7FCB5720EE98710A491C3DD03CD10DC45EC66AA92C4D SWAP1 PUSH1 0x0 SWAP1 LOG2 JUMP JUMPDEST PUSH1 0x0 DUP1 DUP1 JUMPDEST PUSH1 0x2 SLOAD DUP2 LT ISZERO PUSH2 0xA7E JUMPI DUP4 PUSH1 0x2 DUP3 DUP2 SLOAD DUP2 LT PUSH2 0xA4B JUMPI PUSH4 0x4E487B71 PUSH1 0xE0 SHL PUSH1 0x0 MSTORE PUSH1 0x32 PUSH1 0x4 MSTORE PUSH1 0x24 PUSH1 0x0 REVERT JUMPDEST SWAP1 PUSH1 0x0 MSTORE PUSH1 0x20 PUSH1 0x0 KECCAK256 SWAP1 PUSH1 0x3 MUL ADD PUSH1 0x1 ADD SLOAD EQ ISZERO PUSH2 0xA6C JUMPI PUSH1 0x1 SWAP2 POP PUSH2 0xA7E JUMP JUMPDEST DUP1 PUSH2 0xA76 DUP2 PUSH2 0xF42 JUMP JUMPDEST SWAP2 POP POP PUSH2 0xA1F JUMP JUMPDEST PUSH1 0x1 DUP3 ISZERO ISZERO EQ PUSH2 0xAC8 JUMPI PUSH1 0x40 MLOAD PUSH3 0x461BCD PUSH1 0xE5 SHL DUP2 MSTORE PUSH1 0x20 PUSH1 0x4 DUP3 ADD MSTORE PUSH1 0x15 PUSH1 0x24 DUP3 ADD MSTORE PUSH21 0x496E76616C69642043616E64696461746520494421 PUSH1 0x58 SHL PUSH1 0x44 DUP3 ADD MSTORE PUSH1 0x64 ADD PUSH2 0x24E JUMP JUMPDEST PUSH1 0x2 DUP2 DUP2 SLOAD DUP2 LT PUSH2 0xAE9 JUMPI PUSH4 0x4E487B71 PUSH1 0xE0 SHL PUSH1 0x0 MSTORE PUSH1 0x32 PUSH1 0x4 MSTORE PUSH1 0x24 PUSH1 0x0 REVERT JUMPDEST SWAP1 PUSH1 0x0 MSTORE PUSH1 0x20 PUSH1 0x0 KECCAK256 SWAP1 PUSH1 0x3 MUL ADD PUSH1 0x2 ADD SLOAD SWAP3 POP POP POP SWAP2 SWAP1 POP JUMP JUMPDEST DUP3 DUP1 SLOAD PUSH2 0xB10 SWAP1 PUSH2 0xF07 JUMP JUMPDEST SWAP1 PUSH1 0x0 MSTORE PUSH1 0x20 PUSH1 0x0 KECCAK256 SWAP1 PUSH1 0x1F ADD PUSH1 0x20 SWAP1 DIV DUP2 ADD SWAP3 DUP3 PUSH2 0xB32 JUMPI PUSH1 0x0 DUP6 SSTORE PUSH2 0xB7F JUMP JUMPDEST DUP3 PUSH1 0x1F LT PUSH2 0xB43 JUMPI DUP1 SLOAD DUP6 SSTORE PUSH2 0xB7F JUMP JUMPDEST DUP3 DUP1 ADD PUSH1 0x1 ADD DUP6 SSTORE DUP3 ISZERO PUSH2 0xB7F JUMPI PUSH1 0x0 MSTORE PUSH1 0x20 PUSH1 0x0 KECCAK256 SWAP2 PUSH1 0x1F ADD PUSH1 0x20 SWAP1 DIV DUP3 ADD JUMPDEST DUP3 DUP2 GT ISZERO PUSH2 0xB7F JUMPI DUP3 SLOAD DUP3 SSTORE SWAP2 PUSH1 0x1 ADD SWAP2 SWAP1 PUSH1 0x1 ADD SWAP1 PUSH2 0xB64 JUMP JUMPDEST POP PUSH2 0xB8B SWAP3 SWAP2 POP PUSH2 0xC7D JUMP JUMPDEST POP SWAP1 JUMP JUMPDEST POP DUP1 SLOAD PUSH2 0xB9B SWAP1 PUSH2 0xF07 JUMP JUMPDEST PUSH1 0x0 DUP3 SSTORE DUP1 PUSH1 0x1F LT PUSH2 0xBAD JUMPI POP PUSH2 0xBCB JUMP JUMPDEST PUSH1 0x1F ADD PUSH1 0x20 SWAP1 DIV SWAP1 PUSH1 0x0 MSTORE PUSH1 0x20 PUSH1 0x0 KECCAK256 SWAP1 DUP2 ADD SWAP1 PUSH2 0xBCB SWAP2 SWAP1 PUSH2 0xC7D JUMP JUMPDEST POP JUMP JUMPDEST DUP3 DUP1 SLOAD PUSH2 0xBDA SWAP1 PUSH2 0xF07 JUMP JUMPDEST SWAP1 PUSH1 0x0 MSTORE PUSH1 0x20 PUSH1 0x0 KECCAK256 SWAP1 PUSH1 0x1F ADD PUSH1 0x20 SWAP1 DIV DUP2 ADD SWAP3 DUP3 PUSH2 0xBFC JUMPI PUSH1 0x0 DUP6 SSTORE PUSH2 0xB7F JUMP JUMPDEST DUP3 PUSH1 0x1F LT PUSH2 0xC15 JUMPI DUP1 MLOAD PUSH1 0xFF NOT AND DUP4 DUP1 ADD OR DUP6 SSTORE PUSH2 0xB7F JUMP JUMPDEST DUP3 DUP1 ADD PUSH1 0x1 ADD DUP6 SSTORE DUP3 ISZERO PUSH2 0xB7F JUMPI SWAP2 DUP3 ADD JUMPDEST DUP3 DUP2 GT ISZERO PUSH2 0xB7F JUMPI DUP3 MLOAD DUP3 SSTORE SWAP2 PUSH1 0x20 ADD SWAP2 SWAP1 PUSH1 0x1 ADD SWAP1 PUSH2 0xC27 JUMP JUMPDEST POP DUP1 SLOAD PUSH1 0x0 DUP3 SSTORE PUSH1 0x3 MUL SWAP1 PUSH1 0x0 MSTORE PUSH1 0x20 PUSH1 0x0 KECCAK256 SWAP1 DUP2 ADD SWAP1 PUSH2 0xBCB SWAP2 SWAP1 PUSH2 0xC92 JUMP JUMPDEST POP DUP1 SLOAD PUSH1 0x0 DUP3 SSTORE SWAP1 PUSH1 0x0 MSTORE PUSH1 0x20 PUSH1 0x0 KECCAK256 SWAP1 DUP2 ADD SWAP1 PUSH2 0xBCB SWAP2 SWAP1 JUMPDEST JUMPDEST DUP1 DUP3 GT ISZERO PUSH2 0xB8B JUMPI PUSH1 0x0 DUP2 SSTORE PUSH1 0x1 ADD PUSH2 0xC7E JUMP JUMPDEST DUP1 DUP3 GT ISZERO PUSH2 0xB8B JUMPI PUSH1 0x0 PUSH2 0xCA6 DUP3 DUP3 PUSH2 0xB8F JUMP JUMPDEST POP PUSH1 0x0 PUSH1 0x1 DUP3 ADD DUP2 SWAP1 SSTORE PUSH1 0x2 DUP3 ADD SSTORE PUSH1 0x3 ADD PUSH2 0xC92 JUMP JUMPDEST PUSH1 0x0 DUP1 PUSH1 0x40 DUP4 DUP6 SUB SLT ISZERO PUSH2 0xCCF JUMPI DUP2 DUP3 REVERT JUMPDEST DUP3 CALLDATALOAD PUSH8 0xFFFFFFFFFFFFFFFF DUP1 DUP3 GT ISZERO PUSH2 0xCE6 JUMPI DUP4 DUP5 REVERT JUMPDEST DUP2 DUP6 ADD SWAP2 POP DUP6 PUSH1 0x1F DUP4 ADD SLT PUSH2 0xCF9 JUMPI DUP4 DUP5 REVERT JUMPDEST DUP2 CALLDATALOAD DUP2 DUP2 GT ISZERO PUSH2 0xD0B JUMPI PUSH2 0xD0B PUSH2 0xF73 JUMP JUMPDEST PUSH1 0x40 MLOAD PUSH1 0x1F DUP3 ADD PUSH1 0x1F NOT SWAP1 DUP2 AND PUSH1 0x3F ADD AND DUP2 ADD SWAP1 DUP4 DUP3 GT DUP2 DUP4 LT OR ISZERO PUSH2 0xD33 JUMPI PUSH2 0xD33 PUSH2 0xF73 JUMP JUMPDEST DUP2 PUSH1 0x40 MSTORE DUP3 DUP2 MSTORE DUP9 PUSH1 0x20 DUP5 DUP8 ADD ADD GT ISZERO PUSH2 0xD4B JUMPI DUP7 DUP8 REVERT JUMPDEST DUP3 PUSH1 0x20 DUP7 ADD PUSH1 0x20 DUP4 ADD CALLDATACOPY SWAP2 DUP3 ADD PUSH1 0x20 SWAP1 DUP2 ADD SWAP7 SWAP1 SWAP7 MSTORE POP SWAP7 SWAP5 SWAP1 SWAP4 ADD CALLDATALOAD SWAP5 POP POP POP POP JUMP JUMPDEST PUSH1 0x0 PUSH1 0x20 DUP3 DUP5 SUB SLT ISZERO PUSH2 0xD80 JUMPI DUP1 DUP2 REVERT JUMPDEST POP CALLDATALOAD SWAP2 SWAP1 POP JUMP JUMPDEST PUSH1 0x0 DUP1 PUSH1 0x0 DUP1 PUSH1 0x0 PUSH1 0xA0 DUP7 DUP9 SUB SLT ISZERO PUSH2 0xD9E JUMPI DUP1 DUP2 REVERT JUMPDEST POP POP DUP4 CALLDATALOAD SWAP6 PUSH1 0x20 DUP6 ADD CALLDATALOAD SWAP6 POP PUSH1 0x40 DUP6 ADD CALLDATALOAD SWAP5 PUSH1 0x60 DUP2 ADD CALLDATALOAD SWAP5 POP PUSH1 0x80 ADD CALLDATALOAD SWAP3 POP SWAP1 POP JUMP JUMPDEST PUSH1 0x20 DUP1 DUP3 MSTORE DUP3 MLOAD DUP3 DUP3 ADD DUP2 SWAP1 MSTORE PUSH1 0x0 SWAP2 SWAP1 PUSH1 0x40 SWAP1 DUP2 DUP6 ADD SWAP1 DUP1 DUP5 MUL DUP7 ADD DUP4 ADD DUP8 DUP6 ADD DUP7 JUMPDEST DUP4 DUP2 LT ISZERO PUSH2 0xE69 JUMPI PUSH1 0x3F NOT DUP10 DUP5 SUB ADD DUP6 MSTORE DUP2 MLOAD PUSH1 0x60 DUP2 MLOAD DUP2 DUP7 MSTORE DUP1 MLOAD DUP1 DUP4 DUP9 ADD MSTORE DUP12 SWAP3 POP JUMPDEST DUP1 DUP4 LT ISZERO PUSH2 0xE28 JUMPI DUP2 DUP4 ADD DUP12 ADD MLOAD DUP8 DUP5 ADD PUSH1 0x80 ADD MSTORE SWAP2 DUP11 ADD SWAP2 PUSH2 0xE0A JUMP JUMPDEST DUP1 DUP4 GT ISZERO PUSH2 0xE39 JUMPI DUP12 PUSH1 0x80 DUP3 DUP10 ADD ADD MSTORE JUMPDEST DUP4 DUP12 ADD MLOAD DUP8 DUP13 ADD MSTORE SWAP3 DUP10 ADD MLOAD DUP10 DUP8 ADD MSTORE POP POP SWAP5 DUP8 ADD SWAP5 PUSH1 0x1F ADD PUSH1 0x1F NOT AND SWAP1 SWAP3 ADD PUSH1 0x80 ADD SWAP2 SWAP1 DUP7 ADD SWAP1 PUSH1 0x1 ADD PUSH2 0xDE5 JUMP JUMPDEST POP SWAP1 SWAP9 SWAP8 POP POP POP POP POP POP POP POP JUMP JUMPDEST PUSH1 0x20 DUP1 DUP3 MSTORE PUSH1 0x22 SWAP1 DUP3 ADD MSTORE PUSH32 0x4F6E6C7920686F73742063616E2061636365737320746F207468697320617265 PUSH1 0x40 DUP3 ADD MSTORE PUSH2 0x6121 PUSH1 0xF0 SHL PUSH1 0x60 DUP3 ADD MSTORE PUSH1 0x80 ADD SWAP1 JUMP JUMPDEST PUSH1 0x0 DUP3 NOT DUP3 GT ISZERO PUSH2 0xECC JUMPI PUSH2 0xECC PUSH2 0xF5D JUMP JUMPDEST POP ADD SWAP1 JUMP JUMPDEST PUSH1 0x0 DUP2 PUSH1 0x0 NOT DIV DUP4 GT DUP3 ISZERO ISZERO AND ISZERO PUSH2 0xEEB JUMPI PUSH2 0xEEB PUSH2 0xF5D JUMP JUMPDEST POP MUL SWAP1 JUMP JUMPDEST PUSH1 0x0 DUP3 DUP3 LT ISZERO PUSH2 0xF02 JUMPI PUSH2 0xF02 PUSH2 0xF5D JUMP JUMPDEST POP SUB SWAP1 JUMP JUMPDEST PUSH1 0x2 DUP2 DIV PUSH1 0x1 DUP3 AND DUP1 PUSH2 0xF1B JUMPI PUSH1 0x7F DUP3 AND SWAP2 POP JUMPDEST PUSH1 0x20 DUP3 LT DUP2 EQ ISZERO PUSH2 0xF3C JUMPI PUSH4 0x4E487B71 PUSH1 0xE0 SHL PUSH1 0x0 MSTORE PUSH1 0x22 PUSH1 0x4 MSTORE PUSH1 0x24 PUSH1 0x0 REVERT JUMPDEST POP SWAP2 SWAP1 POP JUMP JUMPDEST PUSH1 0x0 PUSH1 0x0 NOT DUP3 EQ ISZERO PUSH2 0xF56 JUMPI PUSH2 0xF56 PUSH2 0xF5D JUMP JUMPDEST POP PUSH1 0x1 ADD SWAP1 JUMP JUMPDEST PUSH4 0x4E487B71 PUSH1 0xE0 SHL PUSH1 0x0 MSTORE PUSH1 0x11 PUSH1 0x4 MSTORE PUSH1 0x24 PUSH1 0x0 REVERT JUMPDEST PUSH4 0x4E487B71 PUSH1 0xE0 SHL PUSH1 0x0 MSTORE PUSH1 0x41 PUSH1 0x4 MSTORE PUSH1 0x24 PUSH1 0x0 REVERT INVALID LOG2 PUSH5 0x6970667358 0x22 SLT KECCAK256 0xD8 0x5F EXTCODEHASH DELEGATECALL ORIGIN 0xED PUSH5 0x1118A4232F 0x5F 0xD8 0xAB MLOAD ADDMOD PUSH32 0x69862C207F64878CC68448FA39FB64736F6C6343000802003300000000000000 "
        },
        "methodIdentifiers": {
          "addCandidate(string,uint256)": "e23cec7b",
          "getCandidates()": "06a49fce",
          "getCandidates_votecount(uint256)": "f84028d5",
          "getElection_time()": "2ed986a7",
          "getResetElection_count()": "4f84d8d8",
          "removeCandidate(uint256)": "09e9d7e2",
          "resetElection()": "e8f30523",
          "startElection(uint256,uint256,uint256,uint256,uint256)": "7af87410"
        }
      }
    }
  }
}