{
  "contracts/DVS.sol": {
    "Election": {
      "abi": [
        {
          "inputs": [],
          "stateMutability": "nonpayable",
          "type": "constructor"
        },
        {
          "anonymous": false,
          "inputs": [
            {
              "indexed": true,
              "internalType": "address",
              "name": "host_",
              "type": "address"
            }
          ],
          "name": "constructor_",
          "type": "event"
        },
        {
          "anonymous": false,
          "inputs": [
            {
              "indexed": true,
              "internalType": "uint256",
              "name": "resetCount",
              "type": "uint256"
            }
          ],
          "name": "resetElection_",
          "type": "event"
        },
        {
          "anonymous": false,
          "inputs": [
            {
              "indexed": true,
              "internalType": "uint256",
              "name": "endTime_",
              "type": "uint256"
            }
          ],
          "name": "setElection_time_",
          "type": "event"
        },
        {
          "inputs": [],
          "name": "getElection_time",
          "outputs": [
            {
              "internalType": "uint256",
              "name": "",
              "type": "uint256"
            }
          ],
          "stateMutability": "view",
          "type": "function"
        },
        {
          "inputs": [],
          "name": "getResetElection_count",
          "outputs": [
            {
              "internalType": "uint256",
              "name": "",
              "type": "uint256"
            }
          ],
          "stateMutability": "view",
          "type": "function"
        },
        {
          "inputs": [],
          "name": "resetElection",
          "outputs": [],
          "stateMutability": "nonpayable",
          "type": "function"
        },
        {
          "inputs": [
            {
              "internalType": "uint256",
              "name": "weeks_",
              "type": "uint256"
            },
            {
              "internalType": "uint256",
              "name": "days_",
              "type": "uint256"
            },
            {
              "internalType": "uint256",
              "name": "hours_",
              "type": "uint256"
            },
            {
              "internalType": "uint256",
              "name": "minutes_",
              "type": "uint256"
            },
            {
              "internalType": "uint256",
              "name": "seconds_",
              "type": "uint256"
            }
          ],
          "name": "startElection",
          "outputs": [],
          "stateMutability": "nonpayable",
          "type": "function"
        }
      ],
      "evm": {
        "bytecode": {
          "linkReferences": {},
          "object": "6080604052600060015534801561001557600080fd5b50600080546001600160a01b03191633178082556040516001600160a01b0391909116917f0b41a216fea24e5c7f23614889e0b25abb2e08d2eb1b497dec255157ff953d0a91a26106908061006b6000396000f3fe608060405234801561001057600080fd5b506004361061004c5760003560e01c80632ed986a7146100515780634f84d8d81461006b5780637af8741014610073578063e8f3052314610088575b600080fd5b610059610090565b60405190815260200160405180910390f35b600154610059565b610086610081366004610524565b6100fb565b005b610086610240565b600060095442106100e85760405162461bcd60e51b815260206004820152601d60248201527f456c656374696f6e20686173206e6f742073746172746564207965742100000060448201526064015b60405180910390fd5b426009546100f691906105d7565b905090565b6000546001600160a01b031633146101255760405162461bcd60e51b81526004016100df9061055e565b6002805410156101a75760405162461bcd60e51b815260206004820152604160248201527f4174206c656173742032206f72206d6f72652043616e6469646174657320617260448201527f6520726571756972656420746f2073746172742074686520456c656374696f6e6064820152602160f81b608482015260a4016100df565b806101b383603c6105b8565b6101bf85610e106105b8565b6101cc87620151806105b8565b6101d98962093a806105b8565b6101e390426105a0565b6101ed91906105a0565b6101f791906105a0565b61020191906105a0565b61020b91906105a0565b60098190556040517fd0620cedbb1e03e8a5c59f460040ef78fd59fb3abf2fce0a3f43a2adf47be5e990600090a25050505050565b6000546001600160a01b0316331461026a5760405162461bcd60e51b81526004016100df9061055e565b60095442106102bb5760405162461bcd60e51b815260206004820152601d60248201527f456c656374696f6e20686173206e6f742073746172746564207965742100000060448201526064016100df565b60005b60025481101561033257600060036000600484815481106102ef57634e487b7160e01b600052603260045260246000fd5b9060005260206000200154815260200190815260200160002060006101000a81548160ff021916908315150217905550808061032a90610629565b9150506102be565b5060005b600754811015610401576000600560006008848154811061036757634e487b7160e01b600052603260045260246000fd5b9060005260206000200154815260200190815260200160002060006101000a81548160ff021916908315150217905550600060066000600884815481106103be57634e487b7160e01b600052603260045260246000fd5b9060005260206000200154815260200190815260200160002060006101000a81548160ff02191690831515021790555080806103f990610629565b915050610336565b5061040e60026000610462565b61041a60076000610486565b60006009819055600180549161042f83610629565b90915550506001546040517f255af500d3b382c6aefa7fcb5720ee98710a491c3dd03cd10dc45ec66aa92c4d90600090a2565b508054600082556003029060005260206000209081019061048391906104a4565b50565b508054600082559060005260206000209081019061048391906104d3565b808211156104cf5760006104b882826104e8565b5060006001820181905560028201556003016104a4565b5090565b5b808211156104cf57600081556001016104d4565b5080546104f4906105ee565b6000825580601f106105065750610483565b601f01602090049060005260206000209081019061048391906104d3565b600080600080600060a0868803121561053b578081fd5b505083359560208501359550604085013594606081013594506080013592509050565b60208082526022908201527f4f6e6c7920686f73742063616e2061636365737320746f207468697320617265604082015261612160f01b606082015260800190565b600082198211156105b3576105b3610644565b500190565b60008160001904831182151516156105d2576105d2610644565b500290565b6000828210156105e9576105e9610644565b500390565b60028104600182168061060257607f821691505b6020821081141561062357634e487b7160e01b600052602260045260246000fd5b50919050565b600060001982141561063d5761063d610644565b5060010190565b634e487b7160e01b600052601160045260246000fdfea264697066735822122002d7e44134e9a5908ae6d51633b78357cc11dc08f59138f2ac75195f5c99b04b64736f6c63430008020033",
          "opcodes": "PUSH1 0x80 PUSH1 0x40 MSTORE PUSH1 0x0 PUSH1 0x1 SSTORE CALLVALUE DUP1 ISZERO PUSH2 0x15 JUMPI PUSH1 0x0 DUP1 REVERT JUMPDEST POP PUSH1 0x0 DUP1 SLOAD PUSH1 0x1 PUSH1 0x1 PUSH1 0xA0 SHL SUB NOT AND CALLER OR DUP1 DUP3 SSTORE PUSH1 0x40 MLOAD PUSH1 0x1 PUSH1 0x1 PUSH1 0xA0 SHL SUB SWAP2 SWAP1 SWAP2 AND SWAP2 PUSH32 0xB41A216FEA24E5C7F23614889E0B25ABB2E08D2EB1B497DEC255157FF953D0A SWAP2 LOG2 PUSH2 0x690 DUP1 PUSH2 0x6B PUSH1 0x0 CODECOPY PUSH1 0x0 RETURN INVALID PUSH1 0x80 PUSH1 0x40 MSTORE CALLVALUE DUP1 ISZERO PUSH2 0x10 JUMPI PUSH1 0x0 DUP1 REVERT JUMPDEST POP PUSH1 0x4 CALLDATASIZE LT PUSH2 0x4C JUMPI PUSH1 0x0 CALLDATALOAD PUSH1 0xE0 SHR DUP1 PUSH4 0x2ED986A7 EQ PUSH2 0x51 JUMPI DUP1 PUSH4 0x4F84D8D8 EQ PUSH2 0x6B JUMPI DUP1 PUSH4 0x7AF87410 EQ PUSH2 0x73 JUMPI DUP1 PUSH4 0xE8F30523 EQ PUSH2 0x88 JUMPI JUMPDEST PUSH1 0x0 DUP1 REVERT JUMPDEST PUSH2 0x59 PUSH2 0x90 JUMP JUMPDEST PUSH1 0x40 MLOAD SWAP1 DUP2 MSTORE PUSH1 0x20 ADD PUSH1 0x40 MLOAD DUP1 SWAP2 SUB SWAP1 RETURN JUMPDEST PUSH1 0x1 SLOAD PUSH2 0x59 JUMP JUMPDEST PUSH2 0x86 PUSH2 0x81 CALLDATASIZE PUSH1 0x4 PUSH2 0x524 JUMP JUMPDEST PUSH2 0xFB JUMP JUMPDEST STOP JUMPDEST PUSH2 0x86 PUSH2 0x240 JUMP JUMPDEST PUSH1 0x0 PUSH1 0x9 SLOAD TIMESTAMP LT PUSH2 0xE8 JUMPI PUSH1 0x40 MLOAD PUSH3 0x461BCD PUSH1 0xE5 SHL DUP2 MSTORE PUSH1 0x20 PUSH1 0x4 DUP3 ADD MSTORE PUSH1 0x1D PUSH1 0x24 DUP3 ADD MSTORE PUSH32 0x456C656374696F6E20686173206E6F7420737461727465642079657421000000 PUSH1 0x44 DUP3 ADD MSTORE PUSH1 0x64 ADD JUMPDEST PUSH1 0x40 MLOAD DUP1 SWAP2 SUB SWAP1 REVERT JUMPDEST TIMESTAMP PUSH1 0x9 SLOAD PUSH2 0xF6 SWAP2 SWAP1 PUSH2 0x5D7 JUMP JUMPDEST SWAP1 POP SWAP1 JUMP JUMPDEST PUSH1 0x0 SLOAD PUSH1 0x1 PUSH1 0x1 PUSH1 0xA0 SHL SUB AND CALLER EQ PUSH2 0x125 JUMPI PUSH1 0x40 MLOAD PUSH3 0x461BCD PUSH1 0xE5 SHL DUP2 MSTORE PUSH1 0x4 ADD PUSH2 0xDF SWAP1 PUSH2 0x55E JUMP JUMPDEST PUSH1 0x2 DUP1 SLOAD LT ISZERO PUSH2 0x1A7 JUMPI PUSH1 0x40 MLOAD PUSH3 0x461BCD PUSH1 0xE5 SHL DUP2 MSTORE PUSH1 0x20 PUSH1 0x4 DUP3 ADD MSTORE PUSH1 0x41 PUSH1 0x24 DUP3 ADD MSTORE PUSH32 0x4174206C656173742032206F72206D6F72652043616E64696461746573206172 PUSH1 0x44 DUP3 ADD MSTORE PUSH32 0x6520726571756972656420746F2073746172742074686520456C656374696F6E PUSH1 0x64 DUP3 ADD MSTORE PUSH1 0x21 PUSH1 0xF8 SHL PUSH1 0x84 DUP3 ADD MSTORE PUSH1 0xA4 ADD PUSH2 0xDF JUMP JUMPDEST DUP1 PUSH2 0x1B3 DUP4 PUSH1 0x3C PUSH2 0x5B8 JUMP JUMPDEST PUSH2 0x1BF DUP6 PUSH2 0xE10 PUSH2 0x5B8 JUMP JUMPDEST PUSH2 0x1CC DUP8 PUSH3 0x15180 PUSH2 0x5B8 JUMP JUMPDEST PUSH2 0x1D9 DUP10 PUSH3 0x93A80 PUSH2 0x5B8 JUMP JUMPDEST PUSH2 0x1E3 SWAP1 TIMESTAMP PUSH2 0x5A0 JUMP JUMPDEST PUSH2 0x1ED SWAP2 SWAP1 PUSH2 0x5A0 JUMP JUMPDEST PUSH2 0x1F7 SWAP2 SWAP1 PUSH2 0x5A0 JUMP JUMPDEST PUSH2 0x201 SWAP2 SWAP1 PUSH2 0x5A0 JUMP JUMPDEST PUSH2 0x20B SWAP2 SWAP1 PUSH2 0x5A0 JUMP JUMPDEST PUSH1 0x9 DUP2 SWAP1 SSTORE PUSH1 0x40 MLOAD PUSH32 0xD0620CEDBB1E03E8A5C59F460040EF78FD59FB3ABF2FCE0A3F43A2ADF47BE5E9 SWAP1 PUSH1 0x0 SWAP1 LOG2 POP POP POP POP POP JUMP JUMPDEST PUSH1 0x0 SLOAD PUSH1 0x1 PUSH1 0x1 PUSH1 0xA0 SHL SUB AND CALLER EQ PUSH2 0x26A JUMPI PUSH1 0x40 MLOAD PUSH3 0x461BCD PUSH1 0xE5 SHL DUP2 MSTORE PUSH1 0x4 ADD PUSH2 0xDF SWAP1 PUSH2 0x55E JUMP JUMPDEST PUSH1 0x9 SLOAD TIMESTAMP LT PUSH2 0x2BB JUMPI PUSH1 0x40 MLOAD PUSH3 0x461BCD PUSH1 0xE5 SHL DUP2 MSTORE PUSH1 0x20 PUSH1 0x4 DUP3 ADD MSTORE PUSH1 0x1D PUSH1 0x24 DUP3 ADD MSTORE PUSH32 0x456C656374696F6E20686173206E6F7420737461727465642079657421000000 PUSH1 0x44 DUP3 ADD MSTORE PUSH1 0x64 ADD PUSH2 0xDF JUMP JUMPDEST PUSH1 0x0 JUMPDEST PUSH1 0x2 SLOAD DUP2 LT ISZERO PUSH2 0x332 JUMPI PUSH1 0x0 PUSH1 0x3 PUSH1 0x0 PUSH1 0x4 DUP5 DUP2 SLOAD DUP2 LT PUSH2 0x2EF JUMPI PUSH4 0x4E487B71 PUSH1 0xE0 SHL PUSH1 0x0 MSTORE PUSH1 0x32 PUSH1 0x4 MSTORE PUSH1 0x24 PUSH1 0x0 REVERT JUMPDEST SWAP1 PUSH1 0x0 MSTORE PUSH1 0x20 PUSH1 0x0 KECCAK256 ADD SLOAD DUP2 MSTORE PUSH1 0x20 ADD SWAP1 DUP2 MSTORE PUSH1 0x20 ADD PUSH1 0x0 KECCAK256 PUSH1 0x0 PUSH2 0x100 EXP DUP2 SLOAD DUP2 PUSH1 0xFF MUL NOT AND SWAP1 DUP4 ISZERO ISZERO MUL OR SWAP1 SSTORE POP DUP1 DUP1 PUSH2 0x32A SWAP1 PUSH2 0x629 JUMP JUMPDEST SWAP2 POP POP PUSH2 0x2BE JUMP JUMPDEST POP PUSH1 0x0 JUMPDEST PUSH1 0x7 SLOAD DUP2 LT ISZERO PUSH2 0x401 JUMPI PUSH1 0x0 PUSH1 0x5 PUSH1 0x0 PUSH1 0x8 DUP5 DUP2 SLOAD DUP2 LT PUSH2 0x367 JUMPI PUSH4 0x4E487B71 PUSH1 0xE0 SHL PUSH1 0x0 MSTORE PUSH1 0x32 PUSH1 0x4 MSTORE PUSH1 0x24 PUSH1 0x0 REVERT JUMPDEST SWAP1 PUSH1 0x0 MSTORE PUSH1 0x20 PUSH1 0x0 KECCAK256 ADD SLOAD DUP2 MSTORE PUSH1 0x20 ADD SWAP1 DUP2 MSTORE PUSH1 0x20 ADD PUSH1 0x0 KECCAK256 PUSH1 0x0 PUSH2 0x100 EXP DUP2 SLOAD DUP2 PUSH1 0xFF MUL NOT AND SWAP1 DUP4 ISZERO ISZERO MUL OR SWAP1 SSTORE POP PUSH1 0x0 PUSH1 0x6 PUSH1 0x0 PUSH1 0x8 DUP5 DUP2 SLOAD DUP2 LT PUSH2 0x3BE JUMPI PUSH4 0x4E487B71 PUSH1 0xE0 SHL PUSH1 0x0 MSTORE PUSH1 0x32 PUSH1 0x4 MSTORE PUSH1 0x24 PUSH1 0x0 REVERT JUMPDEST SWAP1 PUSH1 0x0 MSTORE PUSH1 0x20 PUSH1 0x0 KECCAK256 ADD SLOAD DUP2 MSTORE PUSH1 0x20 ADD SWAP1 DUP2 MSTORE PUSH1 0x20 ADD PUSH1 0x0 KECCAK256 PUSH1 0x0 PUSH2 0x100 EXP DUP2 SLOAD DUP2 PUSH1 0xFF MUL NOT AND SWAP1 DUP4 ISZERO ISZERO MUL OR SWAP1 SSTORE POP DUP1 DUP1 PUSH2 0x3F9 SWAP1 PUSH2 0x629 JUMP JUMPDEST SWAP2 POP POP PUSH2 0x336 JUMP JUMPDEST POP PUSH2 0x40E PUSH1 0x2 PUSH1 0x0 PUSH2 0x462 JUMP JUMPDEST PUSH2 0x41A PUSH1 0x7 PUSH1 0x0 PUSH2 0x486 JUMP JUMPDEST PUSH1 0x0 PUSH1 0x9 DUP2 SWAP1 SSTORE PUSH1 0x1 DUP1 SLOAD SWAP2 PUSH2 0x42F DUP4 PUSH2 0x629 JUMP JUMPDEST SWAP1 SWAP2 SSTORE POP POP PUSH1 0x1 SLOAD PUSH1 0x40 MLOAD PUSH32 0x255AF500D3B382C6AEFA7FCB5720EE98710A491C3DD03CD10DC45EC66AA92C4D SWAP1 PUSH1 0x0 SWAP1 LOG2 JUMP JUMPDEST POP DUP1 SLOAD PUSH1 0x0 DUP3 SSTORE PUSH1 0x3 MUL SWAP1 PUSH1 0x0 MSTORE PUSH1 0x20 PUSH1 0x0 KECCAK256 SWAP1 DUP2 ADD SWAP1 PUSH2 0x483 SWAP2 SWAP1 PUSH2 0x4A4 JUMP JUMPDEST POP JUMP JUMPDEST POP DUP1 SLOAD PUSH1 0x0 DUP3 SSTORE SWAP1 PUSH1 0x0 MSTORE PUSH1 0x20 PUSH1 0x0 KECCAK256 SWAP1 DUP2 ADD SWAP1 PUSH2 0x483 SWAP2 SWAP1 PUSH2 0x4D3 JUMP JUMPDEST DUP1 DUP3 GT ISZERO PUSH2 0x4CF JUMPI PUSH1 0x0 PUSH2 0x4B8 DUP3 DUP3 PUSH2 0x4E8 JUMP JUMPDEST POP PUSH1 0x0 PUSH1 0x1 DUP3 ADD DUP2 SWAP1 SSTORE PUSH1 0x2 DUP3 ADD SSTORE PUSH1 0x3 ADD PUSH2 0x4A4 JUMP JUMPDEST POP SWAP1 JUMP JUMPDEST JUMPDEST DUP1 DUP3 GT ISZERO PUSH2 0x4CF JUMPI PUSH1 0x0 DUP2 SSTORE PUSH1 0x1 ADD PUSH2 0x4D4 JUMP JUMPDEST POP DUP1 SLOAD PUSH2 0x4F4 SWAP1 PUSH2 0x5EE JUMP JUMPDEST PUSH1 0x0 DUP3 SSTORE DUP1 PUSH1 0x1F LT PUSH2 0x506 JUMPI POP PUSH2 0x483 JUMP JUMPDEST PUSH1 0x1F ADD PUSH1 0x20 SWAP1 DIV SWAP1 PUSH1 0x0 MSTORE PUSH1 0x20 PUSH1 0x0 KECCAK256 SWAP1 DUP2 ADD SWAP1 PUSH2 0x483 SWAP2 SWAP1 PUSH2 0x4D3 JUMP JUMPDEST PUSH1 0x0 DUP1 PUSH1 0x0 DUP1 PUSH1 0x0 PUSH1 0xA0 DUP7 DUP9 SUB SLT ISZERO PUSH2 0x53B JUMPI DUP1 DUP2 REVERT JUMPDEST POP POP DUP4 CALLDATALOAD SWAP6 PUSH1 0x20 DUP6 ADD CALLDATALOAD SWAP6 POP PUSH1 0x40 DUP6 ADD CALLDATALOAD SWAP5 PUSH1 0x60 DUP2 ADD CALLDATALOAD SWAP5 POP PUSH1 0x80 ADD CALLDATALOAD SWAP3 POP SWAP1 POP JUMP JUMPDEST PUSH1 0x20 DUP1 DUP3 MSTORE PUSH1 0x22 SWAP1 DUP3 ADD MSTORE PUSH32 0x4F6E6C7920686F73742063616E2061636365737320746F207468697320617265 PUSH1 0x40 DUP3 ADD MSTORE PUSH2 0x6121 PUSH1 0xF0 SHL PUSH1 0x60 DUP3 ADD MSTORE PUSH1 0x80 ADD SWAP1 JUMP JUMPDEST PUSH1 0x0 DUP3 NOT DUP3 GT ISZERO PUSH2 0x5B3 JUMPI PUSH2 0x5B3 PUSH2 0x644 JUMP JUMPDEST POP ADD SWAP1 JUMP JUMPDEST PUSH1 0x0 DUP2 PUSH1 0x0 NOT DIV DUP4 GT DUP3 ISZERO ISZERO AND ISZERO PUSH2 0x5D2 JUMPI PUSH2 0x5D2 PUSH2 0x644 JUMP JUMPDEST POP MUL SWAP1 JUMP JUMPDEST PUSH1 0x0 DUP3 DUP3 LT ISZERO PUSH2 0x5E9 JUMPI PUSH2 0x5E9 PUSH2 0x644 JUMP JUMPDEST POP SUB SWAP1 JUMP JUMPDEST PUSH1 0x2 DUP2 DIV PUSH1 0x1 DUP3 AND DUP1 PUSH2 0x602 JUMPI PUSH1 0x7F DUP3 AND SWAP2 POP JUMPDEST PUSH1 0x20 DUP3 LT DUP2 EQ ISZERO PUSH2 0x623 JUMPI PUSH4 0x4E487B71 PUSH1 0xE0 SHL PUSH1 0x0 MSTORE PUSH1 0x22 PUSH1 0x4 MSTORE PUSH1 0x24 PUSH1 0x0 REVERT JUMPDEST POP SWAP2 SWAP1 POP JUMP JUMPDEST PUSH1 0x0 PUSH1 0x0 NOT DUP3 EQ ISZERO PUSH2 0x63D JUMPI PUSH2 0x63D PUSH2 0x644 JUMP JUMPDEST POP PUSH1 0x1 ADD SWAP1 JUMP JUMPDEST PUSH4 0x4E487B71 PUSH1 0xE0 SHL PUSH1 0x0 MSTORE PUSH1 0x11 PUSH1 0x4 MSTORE PUSH1 0x24 PUSH1 0x0 REVERT INVALID LOG2 PUSH5 0x6970667358 0x22 SLT KECCAK256 MUL 0xD7 0xE4 COINBASE CALLVALUE 0xE9 0xA5 SWAP1 DUP11 0xE6 0xD5 AND CALLER 0xB7 DUP4 JUMPI 0xCC GT 0xDC ADDMOD CREATE2 SWAP2 CODESIZE CALLCODE 0xAC PUSH22 0x195F5C99B04B64736F6C634300080200330000000000 "
        },
        "methodIdentifiers": {
          "getElection_time()": "2ed986a7",
          "getResetElection_count()": "4f84d8d8",
          "resetElection()": "e8f30523",
          "startElection(uint256,uint256,uint256,uint256,uint256)": "7af87410"
        }
      }
    }
  }
}